:020000040800F2
:1000000000500020E50B0008750B0008770B000876
:1000100000000000000000000000000000000000E0
:10002000000000000000000000000000790B000844
:1000300000000000000000007B0B00087D0B0008A2
:10004000350C0008350C0008350C0008350C00088C
:10005000350C0008350C0008350C0008350C00087C
:10006000350C0008350C0008350C0008350C00086C
:10007000350C0008350C0008350C0008350C00085C
:10008000350C0008350C0008350C00080000000095
:10009000350C0008350C0008350C0008350C00083C
:1000A000350C0008350C0008350C0008350C00082C
:1000B000350C0008350C0008350C0008350C00081C
:1000C00010B5064C2378002B07D1054B002B02D02E
:1000D000044800E000BF0123237010BD040000208D
:1000E00000000000800C0008044B10B5002B03D06A
:1000F0000349044800E000BF10BDC04600000000F6
:1001000008000020800C0008002243088B4274D3B2
:1001100003098B425FD3030A8B4244D3030B8B4208
:1001200028D3030C8B420DD3FF22090212BA030C11
:100130008B4202D31212090265D0030B8B4219D3F2
:1001400000E0090AC30B8B4201D3CB03C01A524112
:10015000830B8B4201D38B03C01A5241430B8B425A
:1001600001D34B03C01A5241030B8B4201D30B0343
:10017000C01A5241C30A8B4201D3CB02C01A52416A
:10018000830A8B4201D38B02C01A5241430A8B422D
:1001900001D34B02C01A5241030A8B4201D30B0216
:1001A000C01A5241CDD2C3098B4201D3CB01C01A30
:1001B000524183098B4201D38B01C01A524143093A
:1001C0008B4201D34B01C01A524103098B4201D328
:1001D0000B01C01A5241C3088B4201D3CB00C01A95
:1001E000524183088B4201D38B00C01A524143080D
:1001F0008B4201D34B00C01A5241411A00D2014632
:10020000524110467047FFE701B5002000F006F8A4
:1002100002BDC0460029F7D076E770477047C04658
:10022000FA21084B10B5890004001868FFF76CFF2D
:1002300000F058F8012000222100404200F022F88E
:10024000002010BD000000204023064A10B51168B0
:1002500000200B431360FFF7E3FF00F06BFC00206E
:1002600010BDC04600200240024A136801331360EB
:100270007047C04620000020014B18687047C046F8
:100280002000002070B58901002814DA0F23C0B2C5
:100290000340083B114A9B089B009B180322104017
:1002A0009040FC321500114085408140DC69AC4330
:1002B0002143D96170BD032583082840A840FC353F
:1002C0002E00074A9B009B18C0228640294081408F
:1002D00092009C58B44321439950EBE700ED00E0B5
:1002E00000E100E0094A431E012093420DD8C021DD
:1002F000074A08485360036A09061B021B0A0B439E
:10030000036200200723906013607047FFFFFF0027
:1003100010E000E000ED00E0054B1A68042802D16F
:1003200010431860704704218A431A60FAE7C046F8
:1003300010E000E0704710B5FFF7FCFF10BD0000B3
:100340000223054A11680B4313600423034A116911
:100350000B43136130BF70470070004000ED00E0B8
:10036000F022174B30B5D96811420BD00023012180
:10037000144802688A431A430260006808405840E3
:10038000084030BD8021C0229D6B49050E4C5201B2
:100390000D420AD023681A40C0235B019A42E5D17E
:1003A0000A4BC01843424341E1E79D6B29439963DF
:1003B0002168074C0A40996B21409963ECE7C046DD
:1003C0000010024000200240007000400040FFFF8B
:1003D000FFFFFFEFF0B5036885B00400DB074ED4E4
:1003E00023689B0700D59FE02368DB0635D50C23E7
:1003F000BC4DEA681A4200D0E9E02B689B0502D5A3
:10040000E369002B50D0E0226B68606A120213404F
:10041000984200D8C9E0FFF7A3FF002844D16B68D9
:10042000B14A1340626A13436B606A68236A12021E
:100430001B06120A13436B60636AEA68590B802338
:1004400001311B028B401206A849120F8A5C002062
:10045000D340A74A1360FFF7E3FE23681B0700D5CC
:10046000ECE023685B0700D50FE123689B0600D50D
:1004700090E1A16A002900D0C0E1002015E00C2124
:10048000984DEB680B40082B08D08023EA685B028C
:100490000A408A420BD1EA681A4208D02B689B03B3
:1004A0009ED56368002B9BD1012005B0F0BD62682A
:1004B0009A4212D12A6813432B60FFF7DDFE802693
:1004C0000700B6022B68334200D089E7FFF7D4FE5D
:1004D000C01B6428F6D90320E7E7A021C9028A429D
:1004E00005D180222968D2020A432A60E2E72968FE
:1004F00080480140296029680B400393039B7E4993
:100500002B680B402B60002AD7D1FFF7B5FE802661
:100510000700B6022B68334200D161E7FFF7ACFE5B
:10052000C01B6428F6D9D6E70C216E4DEA680A4054
:10053000042A06D0EB680B408B4210D1EB68DB033A
:100540000DD42B685B0702D5E368012BACD16A6838
:1005500023696A491B020A4013436B6044E7E2685F
:100560002B68002A10D009218B4313432B60FFF71F
:1005700083FE042607002B683342E8D1FFF77CFE98
:10058000C01B0228F7D9A6E7012293432B60FFF78F
:1005900073FE042607002B68334200D124E7FFF7DF
:1005A0006BFEC01B0228F6D995E76B684E4A1340D4
:1005B00003436B606A68236A12021B06120A134324
:1005C0006B60FFF7CDFE002800D135E76CE7E369EB
:1005D000002B20D080232A685B0013432B60FFF799
:1005E0004BFE80260700B6002B6833420DD06B68A7
:1005F0003D4A1340626A13436B606A68236A1202C1
:100600001B06120A13436B6027E7FFF735FEC01B7A
:100610000228E9D95FE72B68394A802613402B600E
:10062000FFF72AFE0700B6002B68334200D114E71B
:10063000FFF722FEC01B0228F6D94CE762690123AE
:10064000284D002A10D02A6D022613432B65FFF790
:1006500013FE07002B6D334200D002E7FFF70CFEBC
:10066000C01B0228F6D936E72A6D02269A432A656E
:10067000FFF702FE07002B6D334200D1F1E6FFF7D2
:10068000FBFDC01B0228F6D925E780230021154D6C
:100690005B05AA6B00911A4204D1AA6B1343AB63AA
:1006A000012300938027174E7F0033683B4208D018
:1006B0008022A3685200934226D12A6D13432B65F2
:1006C00047E033683B433360FFF7D6FD0190336862
:1006D0003B42EDD1FFF7D0FD019BC01A6428F6D94B
:1006E000F9E6C04600100240FF1FFFFF980C00080B
:1006F00000000020FFFFFEFFFFFFFBFFFFE0FFFF0A
:10070000FFFEFFFF00700040002B16D12B6D604AEA
:10071000802713402B652B6D5E4ABF0013402B656D
:10072000FFF7AAFD06002B6D3B422AD0FFF7A4FD80
:10073000594B801B9842F6D9CDE6A021C9008B42C7
:100740000DD18023296DDB000B432B652B6D1A43E4
:100750002A65FFF791FD80270600BF000EE02B6D94
:100760004B4A13402B652B6D4A4A1340A7E7FFF70E
:1007700083FD494B801B984200D9ACE62B6D3B4270
:10078000F5D0009B012B00D06FE6AB6B434A1340C2
:10079000AB636AE6A1690123414D424A002918D0A2
:1007A000A96802261943A960696B0B436B63802318
:1007B000116A9B010B431362FFF75EFD0700AB68F4
:1007C000334200D055E6FFF757FDC01B0228F6D98B
:1007D00081E6A96802269943A960136A32490B4051
:1007E0001362FFF749FD0700AB68334200D140E6D2
:1007F000FFF742FDC01B0228F6D96CE60C22284DFB
:100800000120EB681340934200D14EE62B68274A43
:1008100013402B6002292BD1FFF72EFD8026070005
:10082000B6042B6833421DD1216BE36AEA680B439F
:100830001F490A401343626B80241343EB608023FB
:100840002A685B0413432B60FFF716FD0600A4041F
:100850002B68234200D010E6FFF70EFD801B022814
:10086000F6D938E6FFF708FDC01B0228D9D932E6D1
:10087000FFF702FD80240600A4042B68234200D168
:10088000FBE5FFF7F9FC801B0228F6D923E6C046FA
:10089000FFFEFFFFFFFBFFFF88130000FFFFFFEFDE
:1008A0000010024000000140FFDFFFFFFFFFFFFEDE
:1008B000FFFF02FF0C22184B10B5D9680A40082A26
:1008C00026D00C2A06D0042A1AD11B68DB0621D4B4
:1008D000124810BD8A021248120F825C0902D868C1
:1008E000890F0131C00304D50E485043FFF70CFCBB
:1008F000EFE71B68DB0601D50B48F6E70748F4E78E
:1009000080205B6800021B045B0F01339840E0E726
:100910000448DEE70448DCE7001002400024F4004D
:10092000A80C000800127A0000093D00F7B501226A
:10093000534C06002368019113408B4228D3326840
:10094000930731D4D30737D40123226801991A4081
:10095000914200D285E032684A4C530700D587E0C7
:10096000130706D5E26833694749DB000A401343A1
:10097000E360FFF79FFFE368444A1B061B0FD35C4D
:10098000D840434B18600020FFF74AFC00200AE0E3
:100990002368019993430B43236023681340019A12
:1009A0009A42CCD00120FEBDF0203649CB6883436B
:1009B000B0680343CB60C5E7324D72682B68022AEA
:1009C00019D19B03EED50321EB688B431343EB60F6
:1009D000FFF752FC73680700022B19D10C22EB6859
:1009E0001340082BB0D0FFF747FC2A4BC01B98429E
:1009F000F4D90320D7E7032A02D19B01E3D4D1E73E
:100A0000012A02D15B07DED4CCE79B05DBD4C9E722
:100A1000032B0CD10C22EB681340934200D193E7D7
:100A2000FFF72AFC1B4BC01B9842F3D9E1E7012BCF
:100A300011D00C22EB68134200D185E7FFF71CFCB4
:100A4000144BC01B9842F4D9D3E7FFF715FC114BA8
:100A5000C01B9842CDD80C22EB681340042BF4D174
:100A600072E722689A43226022681A429AD172E79A
:100A7000E36809490B40F1680B43E36070E7C04647
:100A80000020024000100240FFC7FFFF980C000842
:100A90000000002088130000FFF8FFFF014B1868DA
:100AA0007047C046000000201C491D4A0B6810B565
:100AB0001A4080231B0113430B60102394B006934C
:100AC000A0220F3B0D930023120206A80E930F9253
:100AD0001093FFF77FFC011E00D0FEE70F2302906A
:100AE00003900490059001A80193FFF71FFF041ED7
:100AF00000D0FEE7FFF7D2FFFA218900FFF704FBE1
:100B0000FFF7F0FB0420FFF707FC01202200210083
:100B10004042FFF7B7FB14B010BDC0460070004064
:100B2000FFE7FFFF10B5FFF78FFBFFF7BDFFFFF7F4
:100B300007FCFEE701220E4B10B5596B05200A4356
:100B40005A638022996B52050A439A6300224042FD
:100B50001100FFF797FB0022022011004042FFF72F
:100B600091FB0022012011004042FFF78BFB10BDDA
:100B7000001002407047FEE77047704710B5FFF75E
:100B800073FBFFF7D8FB10BD8022104B5200196891
:100B90000A431A60DA680E490A40DA601A680D4999
:100BA0000A4001211A609A688A439A601A680A49C1
:100BB0000A401A60DA6809490A40DA6000221A61BC
:100BC0008022074B12059A607047C0460010024011
:100BD0000C40FF88F6FFF6FEFFFFFBFFFFFF02FF62
:100BE00000ED00E00D488546002103E00C4B5B580A
:100BF000435004310B480C4B42189A42F6D30B4A2F
:100C000002E0002313600432094B9A42F9D3FFF744
:100C1000BBFF00F011F8FFF785FFFEE70050002052
:100C2000BC0C00080000002004000020040000208C
:100C300024000020FEE7000070B500260C4D0D4C8E
:100C4000641BA410A64209D1002600F019F80A4D31
:100C50000A4C641BA410A64205D170BDB300EB582A
:100C600098470136EEE7B300EB5898470136F2E7B4
:100C7000B40C0008B40C0008B40C0008B80C000850
:100C8000F8B5C046F8BC08BC9E467047F8B5C046EB
:080C9000F8BC08BC9E46704749
:100C98000000000000000000010203040607080924
:0C0CA800030406080C10182030000000A7
:040CB400E90000084B
:040CB800C10000086F
:040CBC0080841E0012
:0400000508000BE5FF
:00000001FF
